{
  "_format": "hh-sol-artifact-1",
  "contractName": "BrokenAccessControl",
  "sourceName": "contracts/BrokenAccessControl.sol",
  "abi": [
    {
      "inputs": [],
      "stateMutability": "nonpayable",
      "type": "constructor"
    },
    {
      "inputs": [
        {
          "internalType": "address",
          "name": "",
          "type": "address"
        }
      ],
      "name": "balances",
      "outputs": [
        {
          "internalType": "uint256",
          "name": "",
          "type": "uint256"
        }
      ],
      "stateMutability": "view",
      "type": "function"
    },
    {
      "inputs": [],
      "name": "deposit",
      "outputs": [],
      "stateMutability": "payable",
      "type": "function"
    },
    {
      "inputs": [],
      "name": "owner",
      "outputs": [
        {
          "internalType": "address",
          "name": "",
          "type": "address"
        }
      ],
      "stateMutability": "view",
      "type": "function"
    },
    {
      "inputs": [
        {
          "internalType": "address",
          "name": "newOwner",
          "type": "address"
        }
      ],
      "name": "setOwner",
      "outputs": [],
      "stateMutability": "nonpayable",
      "type": "function"
    },
    {
      "inputs": [
        {
          "internalType": "address payable",
          "name": "to",
          "type": "address"
        },
        {
          "internalType": "uint256",
          "name": "amount",
          "type": "uint256"
        }
      ],
      "name": "withdraw",
      "outputs": [],
      "stateMutability": "nonpayable",
      "type": "function"
    }
  ],
  "bytecode": "0x608060405234801561001057600080fd5b50336000806101000a81548173ffffffffffffffffffffffffffffffffffffffff021916908373ffffffffffffffffffffffffffffffffffffffff160217905550610526806100606000396000f3fe60806040526004361061004a5760003560e01c806313af40351461004f57806327e235e3146100785780638da5cb5b146100b5578063d0e30db0146100e0578063f3fef3a3146100ea575b600080fd5b34801561005b57600080fd5b50610076600480360381019061007191906102db565b610113565b005b34801561008457600080fd5b5061009f600480360381019061009a91906102db565b610156565b6040516100ac9190610321565b60405180910390f35b3480156100c157600080fd5b506100ca61016e565b6040516100d7919061034b565b60405180910390f35b6100e8610192565b005b3480156100f657600080fd5b50610111600480360381019061010c91906103d0565b6101ea565b005b806000806101000a81548173ffffffffffffffffffffffffffffffffffffffff021916908373ffffffffffffffffffffffffffffffffffffffff16021790555050565b60016020528060005260406000206000915090505481565b60008054906101000a900473ffffffffffffffffffffffffffffffffffffffff1681565b34600160003373ffffffffffffffffffffffffffffffffffffffff1673ffffffffffffffffffffffffffffffffffffffff16815260200190815260200160002060008282546101e1919061043f565b92505081905550565b8047101561022d576040517f08c379a0000000000000000000000000000000000000000000000000000000008152600401610224906104d0565b60405180910390fd5b8173ffffffffffffffffffffffffffffffffffffffff166108fc829081150290604051600060405180830381858888f19350505050158015610273573d6000803e3d6000fd5b505050565b600080fd5b600073ffffffffffffffffffffffffffffffffffffffff82169050919050565b60006102a88261027d565b9050919050565b6102b88161029d565b81146102c357600080fd5b50565b6000813590506102d5816102af565b92915050565b6000602082840312156102f1576102f0610278565b5b60006102ff848285016102c6565b91505092915050565b6000819050919050565b61031b81610308565b82525050565b60006020820190506103366000830184610312565b92915050565b6103458161029d565b82525050565b6000602082019050610360600083018461033c565b92915050565b60006103718261027d565b9050919050565b61038181610366565b811461038c57600080fd5b50565b60008135905061039e81610378565b92915050565b6103ad81610308565b81146103b857600080fd5b50565b6000813590506103ca816103a4565b92915050565b600080604083850312156103e7576103e6610278565b5b60006103f58582860161038f565b9250506020610406858286016103bb565b9150509250929050565b7f4e487b7100000000000000000000000000000000000000000000000000000000600052601160045260246000fd5b600061044a82610308565b915061045583610308565b925082820190508082111561046d5761046c610410565b5b92915050565b600082825260208201905092915050565b7f496e73756666696369656e7420636f6e74726163742062616c616e6365000000600082015250565b60006104ba601d83610473565b91506104c582610484565b602082019050919050565b600060208201905081810360008301526104e9816104ad565b905091905056fea26469706673582212208b08c49d9c7098fef5f4bd7c4e289370215d0471d70a3755a6c47af1ace4671b64736f6c63430008140033",
  "linkReferences": {},
  "deployedLinkReferences": {}
}