{
  "_format": "hh-sol-artifact-1",
  "contractName": "UncheckedLowCall",
  "sourceName": "contracts/UncheckedLowCall.sol",
  "abi": [
    {
      "inputs": [
        {
          "internalType": "address",
          "name": "_recipient",
          "type": "address"
        }
      ],
      "stateMutability": "nonpayable",
      "type": "constructor"
    },
    {
      "inputs": [],
      "name": "recipient",
      "outputs": [
        {
          "internalType": "address",
          "name": "",
          "type": "address"
        }
      ],
      "stateMutability": "view",
      "type": "function"
    },
    {
      "inputs": [],
      "name": "sendFunds",
      "outputs": [],
      "stateMutability": "payable",
      "type": "function"
    },
    {
      "inputs": [],
      "name": "sendWithSend",
      "outputs": [],
      "stateMutability": "payable",
      "type": "function"
    }
  ],
  "bytecode": "0x608060405234801561001057600080fd5b5060405161036e38038061036e833981810160405281019061003291906100db565b806000806101000a81548173ffffffffffffffffffffffffffffffffffffffff021916908373ffffffffffffffffffffffffffffffffffffffff16021790555050610108565b600080fd5b600073ffffffffffffffffffffffffffffffffffffffff82169050919050565b60006100a88261007d565b9050919050565b6100b88161009d565b81146100c357600080fd5b50565b6000815190506100d5816100af565b92915050565b6000602082840312156100f1576100f0610078565b5b60006100ff848285016100c6565b91505092915050565b610257806101176000396000f3fe6080604052600436106100345760003560e01c806366d003ac146100395780636cb138d8146100645780638d68cf591461006e575b600080fd5b34801561004557600080fd5b5061004e610078565b60405161005b91906101c0565b60405180910390f35b61006c61009c565b005b6100766100f4565b005b60008054906101000a900473ffffffffffffffffffffffffffffffffffffffff1681565b60008054906101000a900473ffffffffffffffffffffffffffffffffffffffff1673ffffffffffffffffffffffffffffffffffffffff166108fc349081150290604051600060405180830381858888f1935050505050565b60008054906101000a900473ffffffffffffffffffffffffffffffffffffffff1673ffffffffffffffffffffffffffffffffffffffff16346040516101389061020c565b60006040518083038185875af1925050503d8060008114610175576040519150601f19603f3d011682016040523d82523d6000602084013e61017a565b606091505b505050565b600073ffffffffffffffffffffffffffffffffffffffff82169050919050565b60006101aa8261017f565b9050919050565b6101ba8161019f565b82525050565b60006020820190506101d560008301846101b1565b92915050565b600081905092915050565b50565b60006101f66000836101db565b9150610201826101e6565b600082019050919050565b6000610217826101e9565b915081905091905056fea26469706673582212203b8d0dd1045f7312ff2c532e2c9cad26374b837ab02093966e14b9cb87c3c1e564736f6c63430008140033",
  "linkReferences": {},
  "deployedLinkReferences": {}
}